{
  "contractName": "rps",
  "abi": [
    {
      "constant": true,
      "inputs": [],
      "name": "initialBet",
      "outputs": [
        {
          "name": "",
          "type": "uint256"
        }
      ],
      "payable": false,
      "stateMutability": "view",
      "type": "function",
      "signature": "0x1d73c64c"
    },
    {
      "constant": true,
      "inputs": [],
      "name": "BET_MIN",
      "outputs": [
        {
          "name": "",
          "type": "uint256"
        }
      ],
      "payable": false,
      "stateMutability": "view",
      "type": "function",
      "signature": "0x2626ab08"
    },
    {
      "constant": true,
      "inputs": [],
      "name": "REVEAL_TIMEOUT",
      "outputs": [
        {
          "name": "",
          "type": "uint256"
        }
      ],
      "payable": false,
      "stateMutability": "view",
      "type": "function",
      "signature": "0x3d6ae3a7"
    },
    {
      "anonymous": false,
      "inputs": [
        {
          "indexed": false,
          "name": "_player",
          "type": "address"
        }
      ],
      "name": "PlayerJoined",
      "type": "event",
      "signature": "0x31e760aa525306aba638a784082a013b6a1cc0a9a1789f3f22281c0453b10b1f"
    },
    {
      "anonymous": false,
      "inputs": [
        {
          "indexed": false,
          "name": "_initialBet",
          "type": "uint256"
        }
      ],
      "name": "setBet",
      "type": "event",
      "signature": "0xe8399cc60c81d442b503b2c48767e821b5e491bbe5e07e2f66b02bbdbd5253ee"
    },
    {
      "anonymous": false,
      "inputs": [],
      "name": "PlayerReveal",
      "type": "event",
      "signature": "0x7acad03b4ec7f4a9e8d67006b996cd7d0233ade25c0355a2425983a86be7c5c2"
    },
    {
      "anonymous": false,
      "inputs": [],
      "name": "winnerA",
      "type": "event",
      "signature": "0xfbbfd9ece24d541c2d11edce545bd550611dbaa21ca6fdc6533cde5ad7a7c11a"
    },
    {
      "anonymous": false,
      "inputs": [],
      "name": "winnerB",
      "type": "event",
      "signature": "0x8cb1dcc51f9f5b178857185d27c59bfe058e053233948309e64b866f12d88851"
    },
    {
      "anonymous": false,
      "inputs": [],
      "name": "withDraw",
      "type": "event",
      "signature": "0x0fdb1c102d10f760c1f89c07df345ffe9f98ceecbd77f18227c3656abf6022a0"
    },
    {
      "anonymous": false,
      "inputs": [],
      "name": "startTimer",
      "type": "event",
      "signature": "0xa39f744945d8a66c134d0f7e8201a2ff09fdee95591762ecc92c72ddb53584c4"
    },
    {
      "anonymous": false,
      "inputs": [],
      "name": "InterruptViaTIMEOUT",
      "type": "event",
      "signature": "0x569cb6b649ef431f74c9bbfabede7739c3a916127ee224cfca1eef0a9619749f"
    },
    {
      "constant": false,
      "inputs": [],
      "name": "register",
      "outputs": [
        {
          "name": "",
          "type": "uint256"
        }
      ],
      "payable": true,
      "stateMutability": "payable",
      "type": "function",
      "signature": "0x1aa3a008"
    },
    {
      "constant": false,
      "inputs": [
        {
          "name": "encrMove",
          "type": "bytes32"
        }
      ],
      "name": "commit",
      "outputs": [
        {
          "name": "",
          "type": "bool"
        }
      ],
      "payable": false,
      "stateMutability": "nonpayable",
      "type": "function",
      "signature": "0xf14fcbc8"
    },
    {
      "constant": false,
      "inputs": [
        {
          "name": "clearMove",
          "type": "string"
        }
      ],
      "name": "reveal",
      "outputs": [
        {
          "name": "",
          "type": "uint8"
        }
      ],
      "payable": false,
      "stateMutability": "nonpayable",
      "type": "function",
      "signature": "0x4c261247"
    },
    {
      "constant": false,
      "inputs": [],
      "name": "getOutcome",
      "outputs": [
        {
          "name": "",
          "type": "uint8"
        }
      ],
      "payable": false,
      "stateMutability": "nonpayable",
      "type": "function",
      "signature": "0x7e7e4b47"
    },
    {
      "constant": true,
      "inputs": [],
      "name": "getContractBalance",
      "outputs": [
        {
          "name": "",
          "type": "uint256"
        }
      ],
      "payable": false,
      "stateMutability": "view",
      "type": "function",
      "signature": "0x6f9fb98a"
    },
    {
      "constant": true,
      "inputs": [],
      "name": "whoAmI",
      "outputs": [
        {
          "name": "",
          "type": "uint256"
        }
      ],
      "payable": false,
      "stateMutability": "view",
      "type": "function",
      "signature": "0xda91254c"
    },
    {
      "constant": true,
      "inputs": [],
      "name": "bothPlayed",
      "outputs": [
        {
          "name": "",
          "type": "bool"
        }
      ],
      "payable": false,
      "stateMutability": "view",
      "type": "function",
      "signature": "0x807c8504"
    },
    {
      "constant": true,
      "inputs": [],
      "name": "bothRevealed",
      "outputs": [
        {
          "name": "",
          "type": "bool"
        }
      ],
      "payable": false,
      "stateMutability": "view",
      "type": "function",
      "signature": "0x43445ca8"
    },
    {
      "constant": true,
      "inputs": [],
      "name": "revealTimeLeft",
      "outputs": [
        {
          "name": "",
          "type": "int256"
        }
      ],
      "payable": false,
      "stateMutability": "view",
      "type": "function",
      "signature": "0x51dcb1c3"
    }
  ],
  "bytecode": "0x608060405234801561001057600080fd5b506115b9806100206000396000f3fe6080604052600436106100ba576000357c0100000000000000000000000000000000000000000000000000000000900463ffffffff1680631aa3a008146100bf5780631d73c64c146100dd5780632626ab08146101085780633d6ae3a71461013357806343445ca81461015e5780634c2612471461018d57806351dcb1c3146102775780636f9fb98a146102a25780637e7e4b47146102cd578063807c850414610306578063da91254c14610335578063f14fcbc814610360575b600080fd5b6100c76103b3565b6040518082815260200191505060405180910390f35b3480156100e957600080fd5b506100f2610733565b6040518082815260200191505060405180910390f35b34801561011457600080fd5b5061011d610739565b6040518082815260200191505060405180910390f35b34801561013f57600080fd5b50610148610744565b6040518082815260200191505060405180910390f35b34801561016a57600080fd5b5061017361074a565b604051808215151515815260200191505060405180910390f35b34801561019957600080fd5b50610253600480360360208110156101b057600080fd5b81019080803590602001906401000000008111156101cd57600080fd5b8201836020820111156101df57600080fd5b8035906020019184600183028401116401000000008311171561020157600080fd5b91908080601f016020809104026020016040519081016040528093929190818152602001838380828437600081840152601f19601f8201169050808301925050505050505091929192905050506107ac565b6040518082600381111561026357fe5b60ff16815260200191505060405180910390f35b34801561028357600080fd5b5061028c610b47565b6040518082815260200191505060405180910390f35b3480156102ae57600080fd5b506102b7610b6d565b6040518082815260200191505060405180910390f35b3480156102d957600080fd5b506102e2610b8c565b604051808260038111156102f257fe5b60ff16815260200191505060405180910390f35b34801561031257600080fd5b5061031b610ee0565b604051808215151515815260200191505060405180910390f35b34801561034157600080fd5b5061034a610f02565b6040518082815260200191505060405180910390f35b34801561036c57600080fd5b506103996004803603602081101561038357600080fd5b8101908080359060200190929190505050610fca565b604051808215151515815260200191505060405180910390f35b600066038d7ea4c6800034101515156103cb57600080fd5b6000805414806103dd57506000543410155b15156103e857600080fd5b600260009054906101000a900473ffffffffffffffffffffffffffffffffffffffff1673ffffffffffffffffffffffffffffffffffffffff163373ffffffffffffffffffffffffffffffffffffffff16141580156104945750600360009054906101000a900473ffffffffffffffffffffffffffffffffffffffff1673ffffffffffffffffffffffffffffffffffffffff163373ffffffffffffffffffffffffffffffffffffffff1614155b151561049f57600080fd5b600073ffffffffffffffffffffffffffffffffffffffff16600260009054906101000a900473ffffffffffffffffffffffffffffffffffffffff1673ffffffffffffffffffffffffffffffffffffffff1614156106055733600260006101000a81548173ffffffffffffffffffffffffffffffffffffffff021916908373ffffffffffffffffffffffffffffffffffffffff160217905550346000819055507f31e760aa525306aba638a784082a013b6a1cc0a9a1789f3f22281c0453b10b1f600260009054906101000a900473ffffffffffffffffffffffffffffffffffffffff16604051808273ffffffffffffffffffffffffffffffffffffffff1673ffffffffffffffffffffffffffffffffffffffff16815260200191505060405180910390a17fe8399cc60c81d442b503b2c48767e821b5e491bbe5e07e2f66b02bbdbd5253ee6000546040518082815260200191505060405180910390a160019050610730565b600073ffffffffffffffffffffffffffffffffffffffff16600360009054906101000a900473ffffffffffffffffffffffffffffffffffffffff1673ffffffffffffffffffffffffffffffffffffffff16141561072b5733600360006101000a81548173ffffffffffffffffffffffffffffffffffffffff021916908373ffffffffffffffffffffffffffffffffffffffff1602179055507f31e760aa525306aba638a784082a013b6a1cc0a9a1789f3f22281c0453b10b1f600360009054906101000a900473ffffffffffffffffffffffffffffffffffffffff16604051808273ffffffffffffffffffffffffffffffffffffffff1673ffffffffffffffffffffffffffffffffffffffff16815260200191505060405180910390a160029050610730565b600090505b90565b60005481565b66038d7ea4c6800081565b61025881565b600080600381111561075857fe5b600660009054906101000a900460ff16600381111561077357fe5b141580156107a757506000600381111561078957fe5b600660019054906101000a900460ff1660038111156107a457fe5b14155b905090565b6000600260009054906101000a900473ffffffffffffffffffffffffffffffffffffffff1673ffffffffffffffffffffffffffffffffffffffff163373ffffffffffffffffffffffffffffffffffffffff1614806108575750600360009054906101000a900473ffffffffffffffffffffffffffffffffffffffff1673ffffffffffffffffffffffffffffffffffffffff163373ffffffffffffffffffffffffffffffffffffffff16145b151561086257600080fd5b60006001026004541415801561087e5750600060010260055414155b151561088957600080fd5b60006002836040516020018082805190602001908083835b6020831015156108c657805182526020820191506020810190506020830392506108a1565b6001836020036101000a0380198251168184511680821785525050505050509050019150506040516020818303038152906040526040518082805190602001908083835b60208310151561092f578051825260208201915060208101905060208303925061090a565b6001836020036101000a038019825116818451168082178552505050505050905001915050602060405180830381855afa158015610971573d6000803e3d6000fd5b5050506040513d602081101561098657600080fd5b8101908080519060200190929190505050905060006109a48461117a565b60038111156109af57fe5b9050600060038111156109be57fe5b8160038111156109ca57fe5b14156109db57600092505050610b42565b600260009054906101000a900473ffffffffffffffffffffffffffffffffffffffff1673ffffffffffffffffffffffffffffffffffffffff163373ffffffffffffffffffffffffffffffffffffffff16148015610a39575060045482145b15610a665780600660006101000a81548160ff02191690836003811115610a5c57fe5b0217905550610afd565b600360009054906101000a900473ffffffffffffffffffffffffffffffffffffffff1673ffffffffffffffffffffffffffffffffffffffff163373ffffffffffffffffffffffffffffffffffffffff16148015610ac4575060055482145b15610af15780600660016101000a81548160ff02191690836003811115610ae757fe5b0217905550610afc565b600092505050610b42565b5b60006001541415610b3c57426001819055507fa39f744945d8a66c134d0f7e8201a2ff09fdee95591762ecc92c72ddb53584c460405160405180910390a15b80925050505b919050565b600080600154141515610b64574261025860015401039050610b6a565b61025890505b90565b60003073ffffffffffffffffffffffffffffffffffffffff1631905090565b6000806003811115610b9a57fe5b600660009054906101000a900460ff166003811115610bb557fe5b14158015610be9575060006003811115610bcb57fe5b600660019054906101000a900460ff166003811115610be657fe5b14155b80610c085750600060015414158015610c0757506102586001540142115b5b1515610c1357600080fd5b6000600660019054906101000a900460ff166003811115610c3057fe5b600660009054906101000a900460ff166003811115610c4b57fe5b1415610c8657600390507f0fdb1c102d10f760c1f89c07df345ffe9f98ceecbd77f18227c3656abf6022a060405160405180910390a1610e6e565b60016003811115610c9357fe5b600660009054906101000a900460ff166003811115610cae57fe5b148015610cdf5750600380811115610cc257fe5b600660019054906101000a900460ff166003811115610cdd57fe5b145b80610d40575060026003811115610cf257fe5b600660009054906101000a900460ff166003811115610d0d57fe5b148015610d3f575060016003811115610d2257fe5b600660019054906101000a900460ff166003811115610d3d57fe5b145b5b80610da05750600380811115610d5257fe5b600660009054906101000a900460ff166003811115610d6d57fe5b148015610d9f575060026003811115610d8257fe5b600660019054906101000a900460ff166003811115610d9d57fe5b145b5b80610e02575060006003811115610db357fe5b600660009054906101000a900460ff166003811115610dce57fe5b14158015610e01575060006003811115610de457fe5b600660019054906101000a900460ff166003811115610dff57fe5b145b5b15610e3c57600190507ffbbfd9ece24d541c2d11edce545bd550611dbaa21ca6fdc6533cde5ad7a7c11a60405160405180910390a1610e6d565b600290507f8cb1dcc51f9f5b178857185d27c59bfe058e053233948309e64b866f12d8885160405160405180910390a15b5b6000600260009054906101000a900473ffffffffffffffffffffffffffffffffffffffff1690506000600360009054906101000a900473ffffffffffffffffffffffffffffffffffffffff169050600080549050610eca6112e9565b610ed6838383876113dc565b8394505050505090565b60008060010260045414158015610efd5750600060010260055414155b905090565b6000600260009054906101000a900473ffffffffffffffffffffffffffffffffffffffff1673ffffffffffffffffffffffffffffffffffffffff163373ffffffffffffffffffffffffffffffffffffffff161415610f635760019050610fc7565b600360009054906101000a900473ffffffffffffffffffffffffffffffffffffffff1673ffffffffffffffffffffffffffffffffffffffff163373ffffffffffffffffffffffffffffffffffffffff161415610fc25760029050610fc7565b600090505b90565b6000600260009054906101000a900473ffffffffffffffffffffffffffffffffffffffff1673ffffffffffffffffffffffffffffffffffffffff163373ffffffffffffffffffffffffffffffffffffffff1614806110755750600360009054906101000a900473ffffffffffffffffffffffffffffffffffffffff1673ffffffffffffffffffffffffffffffffffffffff163373ffffffffffffffffffffffffffffffffffffffff16145b151561108057600080fd5b600260009054906101000a900473ffffffffffffffffffffffffffffffffffffffff1673ffffffffffffffffffffffffffffffffffffffff163373ffffffffffffffffffffffffffffffffffffffff161480156110e257506000600102600454145b156110f35781600481905550611170565b600360009054906101000a900473ffffffffffffffffffffffffffffffffffffffff1673ffffffffffffffffffffffffffffffffffffffff163373ffffffffffffffffffffffffffffffffffffffff1614801561115557506000600102600554145b15611166578160058190555061116f565b60009050611175565b5b600190505b919050565b60008082600081518110151561118c57fe5b9060200101517f010000000000000000000000000000000000000000000000000000000000000090047f010000000000000000000000000000000000000000000000000000000000000002905060317f010000000000000000000000000000000000000000000000000000000000000002817effffffffffffffffffffffffffffffffffffffffffffffffffffffffffffff191614156112305760019150506112e4565b60327f010000000000000000000000000000000000000000000000000000000000000002817effffffffffffffffffffffffffffffffffffffffffffffffffffffffffffff191614156112875760029150506112e4565b60337f010000000000000000000000000000000000000000000000000000000000000002817effffffffffffffffffffffffffffffffffffffffffffffffffffffffffffff191614156112de5760039150506112e4565b60009150505b919050565b6000808190555060006001819055506000600260006101000a81548173ffffffffffffffffffffffffffffffffffffffff021916908373ffffffffffffffffffffffffffffffffffffffff1602179055506000600360006101000a81548173ffffffffffffffffffffffffffffffffffffffff021916908373ffffffffffffffffffffffffffffffffffffffff160217905550600060010260048190555060006001026005819055506000600660006101000a81548160ff021916908360038111156113b157fe5b02179055506000600660016101000a81548160ff021916908360038111156113d557fe5b0217905550565b600160038111156113e957fe5b8160038111156113f557fe5b141561145e578373ffffffffffffffffffffffffffffffffffffffff166108fc3073ffffffffffffffffffffffffffffffffffffffff16319081150290604051600060405180830381858888f19350505050158015611458573d6000803e3d6000fd5b50611587565b6002600381111561146b57fe5b81600381111561147757fe5b14156114e0578273ffffffffffffffffffffffffffffffffffffffff166108fc3073ffffffffffffffffffffffffffffffffffffffff16319081150290604051600060405180830381858888f193505050501580156114da573d6000803e3d6000fd5b50611586565b8373ffffffffffffffffffffffffffffffffffffffff166108fc839081150290604051600060405180830381858888f19350505050158015611526573d6000803e3d6000fd5b508273ffffffffffffffffffffffffffffffffffffffff166108fc3073ffffffffffffffffffffffffffffffffffffffff16319081150290604051600060405180830381858888f19350505050158015611584573d6000803e3d6000fd5b505b5b5050505056fea165627a7a723058203d7feeae0962b773bd663d71900234cb9760d08c1002cb2c708e864f0d7921280029",
  "source": "pragma solidity >= 0.5.0 < 0.7.0;\n\ncontract rps {\n\n    uint constant public BET_MIN        = 1 finney;    // The minimum bet\n    uint constant public REVEAL_TIMEOUT = 10 minutes;  // Max delay of revelation phase\n    uint public initialBet;                            // Bet of first player\n    uint private firstReveal;                          // Moment of first reveal\n\n    enum Moves {None, Rock, Paper, Scissors}\n    enum Outcomes {None, PlayerA, PlayerB, Draw}   // Possible outcomes\n\n    // Players' addresses\n    address payable playerA;\n    address payable playerB;\n\n    // Encrypted moves\n    bytes32 private encrMovePlayerA;\n    bytes32 private encrMovePlayerB;\n\n    // Clear moves set only after both players have committed their encrypted moves\n    Moves private movePlayerA;\n    Moves private movePlayerB;\n\n    // Events\n    event PlayerJoined (address _player);\n    event setBet(uint _initialBet);\n    event PlayerReveal();\n    event winnerA();\n    event winnerB();\n    event withDraw();\n    event startTimer();\n    event InterruptViaTIMEOUT();\n\n    /**************************************************************************/\n    /*************************** REGISTRATION PHASE ***************************/\n    /**************************************************************************/\n\n    // Bet must be greater than a minimum amount and greater than bet of first player\n    modifier validBet() {\n        require(msg.value >= BET_MIN);\n        require(initialBet == 0 || msg.value >= initialBet);\n        _;\n    }\n\n    modifier notAlreadyRegistered() {\n        require(msg.sender != playerA && msg.sender != playerB);\n        _;\n    }\n\n    // Register a player.\n    // Return player's ID upon successful registration.\n    function register() public payable validBet notAlreadyRegistered returns (uint) {\n        if (playerA == address(0x0)) {\n            playerA    = msg.sender;\n            initialBet = msg.value;\n            emit PlayerJoined(playerA);\n            emit setBet(initialBet);\n            return 1;\n            \n        } else if (playerB == address(0x0)) {\n            playerB = msg.sender;\n            emit PlayerJoined(playerB);\n            return 2;\n        }\n        return 0;\n    }\n\n    /**************************************************************************/\n    /****************************** COMMIT PHASE ******************************/\n    /**************************************************************************/\n\n    modifier isRegistered() {\n        require (msg.sender == playerA || msg.sender == playerB);\n        _;\n    }\n\n    // Save player's encrypted move.\n    // Return 'true' if move was valid, 'false' otherwise.\n    function commit(bytes32 encrMove) public isRegistered returns (bool) {\n        if (msg.sender == playerA && encrMovePlayerA == 0x0) {\n            encrMovePlayerA = encrMove;\n        } else if (msg.sender == playerB && encrMovePlayerB == 0x0) {\n            encrMovePlayerB = encrMove;\n        } else {\n            return false;\n        }\n        return true;\n    }\n\n    /**************************************************************************/\n    /****************************** REVEAL PHASE ******************************/\n    /**************************************************************************/\n\n    modifier commitPhaseEnded() {\n        require(encrMovePlayerA != 0x0 && encrMovePlayerB != 0x0);\n        _;\n    }\n\n    // Compare clear move given by the player with saved encrypted move.\n    // Return clear move upon success, 'Moves.None' otherwise.\n    function reveal(string memory clearMove) public isRegistered commitPhaseEnded returns (Moves) {\n        bytes32 encrMove = sha256(abi.encodePacked(clearMove));  // Hash of clear input (= \"move-password\")\n        Moves move = Moves(getFirstChar(clearMove));       // Actual move (Rock / Paper / Scissors)\n\n        // If move invalid, exit\n        if (move == Moves.None) {\n            return Moves.None;\n        }\n\n        // If hashes match, clear move is saved\n        if (msg.sender == playerA && encrMove == encrMovePlayerA) {\n            movePlayerA = move;\n        } else if (msg.sender == playerB && encrMove == encrMovePlayerB) {\n            movePlayerB = move;\n        } else {\n            return Moves.None;\n        }\n\n        // Timer starts after first revelation from one of the player\n        if (firstReveal == 0) {\n            firstReveal = now;\n            emit startTimer();\n        }\n\n        return move;\n    }\n\n    // Return first character of a given string.\n    function getFirstChar(string memory str) private pure returns (uint) {\n        byte firstByte = bytes(str)[0];\n        if (firstByte == 0x31) {\n            return 1;\n        } else if (firstByte == 0x32) {\n            return 2;\n        } else if (firstByte == 0x33) {\n            return 3;\n        } else {\n            return 0;\n        }\n    }\n\n    /**************************************************************************/\n    /****************************** RESULT PHASE ******************************/\n    /**************************************************************************/\n\n    modifier revealPhaseEnded() {\n        require((movePlayerA != Moves.None && movePlayerB != Moves.None) ||\n                (firstReveal != 0 && now > firstReveal + REVEAL_TIMEOUT));\n        _;\n    }\n\n    // Compute the outcome and pay the winner(s).\n    // Return the outcome.\n    function getOutcome() public revealPhaseEnded returns (Outcomes) {\n        Outcomes outcome;\n\n        if (movePlayerA == movePlayerB) {\n            outcome = Outcomes.Draw;\n            emit withDraw();\n        } else if ((movePlayerA == Moves.Rock && movePlayerB == Moves.Scissors) ||\n                   (movePlayerA == Moves.Paper && movePlayerB == Moves.Rock)     ||\n                   (movePlayerA == Moves.Scissors && movePlayerB == Moves.Paper)    ||\n                   (movePlayerA != Moves.None && movePlayerB == Moves.None)) {\n            outcome = Outcomes.PlayerA;\n            emit winnerA();\n        } else {\n            outcome = Outcomes.PlayerB;\n            emit winnerB();\n        }\n\n        address payable addrA = playerA;\n        address payable addrB = playerB;\n        uint betPlayerA = initialBet;\n        reset();  // Reset game before paying to avoid reentrancy attacks\n        pay(addrA, addrB, betPlayerA, outcome);\n\n        return outcome;\n    }\n\n    // Pay the winner(s).\n    function pay(address payable addrA, address payable addrB, uint betPlayerA, Outcomes outcome) private {\n        // Uncomment lines below if you need to adjust the gas limit\n        if (outcome == Outcomes.PlayerA) {\n            addrA.transfer(address(this).balance);\n            // addrA.call.value(address(this).balance).gas(1000000)(\"\");\n        } else if (outcome == Outcomes.PlayerB) {\n            addrB.transfer(address(this).balance);\n            // addrB.call.value(address(this).balance).gas(1000000)(\"\");\n        } else {\n            addrA.transfer(betPlayerA);\n            addrB.transfer(address(this).balance);\n            // addrA.call.value(betPlayerA).gas(1000000)(\"\");\n            // addrB.call.value(address(this).balance).gas(1000000)(\"\");\n        }\n    }\n\n    // Reset the game.\n    function reset() private {\n        initialBet = 0;\n        firstReveal = 0;\n        playerA = address(0x0);\n        playerB = address(0x0);\n        encrMovePlayerA = 0x0;\n        encrMovePlayerB = 0x0;\n        movePlayerA = Moves.None;\n        movePlayerB = Moves.None;\n    }\n\n    /**************************************************************************/\n    /**************************** HELPER FUNCTIONS ****************************/\n    /**************************************************************************/\n\n    // Return contract balance\n    function getContractBalance() public view returns (uint) {\n        return address(this).balance;\n    }\n\n    // Return player's ID\n    function whoAmI() public view returns (uint) {\n        if (msg.sender == playerA) {\n            return 1;\n        } else if (msg.sender == playerB) {\n            return 2;\n        } else {\n            return 0;\n        }\n    }\n\n    // Return 'true' if both players have commited a move, 'false' otherwise.\n    function bothPlayed() public view returns (bool) {\n        return (encrMovePlayerA != 0x0 && encrMovePlayerB != 0x0);\n    }\n\n    // Return 'true' if both players have revealed their move, 'false' otherwise.\n    function bothRevealed() public view returns (bool) {\n        return (movePlayerA != Moves.None && movePlayerB != Moves.None);\n    }\n\n    // Return time left before the end of the revelation phase.\n    function revealTimeLeft() public view returns (int) {\n        if (firstReveal != 0) {\n            return int((firstReveal + REVEAL_TIMEOUT) - now);\n        }\n        return int(REVEAL_TIMEOUT);\n    }\n}",
  "sourcePath": "/Users/philipphenk/dev/drizzle-final/contracts/rps.sol",
  "compiler": {
    "name": "solc",
    "version": "0.5.0+commit.1d4f565a.Emscripten.clang"
  },
  "schemaVersion": "3.0.2",
  "updatedAt": "2020-06-24T20:05:58.330Z",
  "devdoc": {
    "methods": {}
  },
  "userdoc": {
    "methods": {
      "getContractBalance()": {
        "notice": "***********************************************************************"
      }
    }
  }
}